{
  "contractName": "Donate_coin",
  "abi": [
    {
      "constant": true,
      "inputs": [],
      "name": "Address",
      "outputs": [
        {
          "internalType": "address",
          "name": "",
          "type": "address"
        }
      ],
      "payable": false,
      "stateMutability": "view",
      "type": "function"
    },
    {
      "constant": false,
      "inputs": [
        {
          "internalType": "address",
          "name": "add",
          "type": "address"
        },
        {
          "internalType": "address payable",
          "name": "add1",
          "type": "address"
        }
      ],
      "name": "Details",
      "outputs": [],
      "payable": true,
      "stateMutability": "payable",
      "type": "function"
    },
    {
      "constant": true,
      "inputs": [
        {
          "internalType": "address payable",
          "name": "add",
          "type": "address"
        }
      ],
      "name": "Retrive",
      "outputs": [
        {
          "internalType": "uint256",
          "name": "",
          "type": "uint256"
        }
      ],
      "payable": false,
      "stateMutability": "view",
      "type": "function"
    }
  ],
  "bytecode": "0x608060405234801561001057600080fd5b50610391806100206000396000f3fe6080604052600436106100345760003560e01c8063219fbba5146100395780633aeaccf51461009e5780639e76ce9e146100f5575b600080fd5b34801561004557600080fd5b506100886004803603602081101561005c57600080fd5b81019080803573ffffffffffffffffffffffffffffffffffffffff169060200190929190505050610159565b6040518082815260200191505060405180910390f35b3480156100aa57600080fd5b506100b36101a2565b604051808273ffffffffffffffffffffffffffffffffffffffff1673ffffffffffffffffffffffffffffffffffffffff16815260200191505060405180910390f35b6101576004803603604081101561010b57600080fd5b81019080803573ffffffffffffffffffffffffffffffffffffffff169060200190929190803573ffffffffffffffffffffffffffffffffffffffff1690602001909291905050506101c7565b005b6000600260008373ffffffffffffffffffffffffffffffffffffffff1673ffffffffffffffffffffffffffffffffffffffff168152602001908152602001600020549050919050565b6000809054906101000a900473ffffffffffffffffffffffffffffffffffffffff1681565b3373ffffffffffffffffffffffffffffffffffffffff168273ffffffffffffffffffffffffffffffffffffffff16146101ff57600080fd5b816000806101000a81548173ffffffffffffffffffffffffffffffffffffffff021916908373ffffffffffffffffffffffffffffffffffffffff16021790555080600160006101000a81548173ffffffffffffffffffffffffffffffffffffffff021916908373ffffffffffffffffffffffffffffffffffffffff160217905550600160009054906101000a900473ffffffffffffffffffffffffffffffffffffffff1673ffffffffffffffffffffffffffffffffffffffff166108fc349081150290604051600060405180830381858888f193505050501580156102e8573d6000803e3d6000fd5b503460026000600160009054906101000a900473ffffffffffffffffffffffffffffffffffffffff1673ffffffffffffffffffffffffffffffffffffffff1673ffffffffffffffffffffffffffffffffffffffff16815260200190815260200160002060008282540192505081905550505056fea265627a7a723158209c9c543011c02069759409baf09e7047dc8e6d9e1a6e10b3d6e1f144c0a73a9164736f6c63430005100032",
  "source": "pragma solidity ^0.5.4;\n\n\ncontract Donate_coin{\n\n    address public Address;\n    address payable b;\n    mapping (address => uint) totaldonations;\n    \n   \n    function Details(address add,address payable add1)  payable external\n    {\n        require(add==msg.sender);\n        Address=add;\n        b=add1;\n        b.transfer(msg.value);\n        totaldonations[b]+=msg.value;\n    }\n    function Retrive(address payable add) public view returns(uint)\n    {\n        return totaldonations[add];\n    }\n    \n}",
  "sourcePath": "C:/Users/CHANDRA MOULI/DAPP/Donate_coin/contracts/Donate_coin.sol",
  "compiler": {
    "name": "solc",
    "version": "0.5.16+commit.9c3226ce.Emscripten.clang"
  },
  "schemaVersion": "3.3.3",
  "updatedAt": "2021-02-23T17:51:01.743Z",
  "networkType": "ethereum",
  "devdoc": {
    "methods": {}
  },
  "userdoc": {
    "methods": {}
  }
}